:0A0000008A15002800000000002807
:10000A0010288312031306101E28831286101E2836
:10001A00831206101E28831603136308003A031975
:10002A0006286308013A03190A286308023A0319E1
:04003A000D28080085
:10003E002A288312031306143828831286143828AC
:10004E00831206143828831603136308003A031923
:10005E0020286308013A031924286308023A031979
:04006E002728080037
:040072000000080082
:10007600FF30831603138800831286150611831634
:100086006108E300052083120313061639200808C9
:100096008316E2008312061283166108E3001F200E
:0A00A600831603136208F00008003F
:1000B000831603136008E1003B20F01F60285828D6
:1000C0008801F3308312860583166008E30005205B
:1000D000831603135F088312880006163920061260
:0A00E00083166008E3001F200800EB
:1000EA0083120313F8010830FC00700DF80D740830
:1000FA00F80203188228F8070310F00DFC0B7A287F
:02010A000800EB
:10010C00063083120313F00064088316E1007008B4
:10011C0003199428E10CE113FF3E8E283B20F01FBD
:10012C0098288628880183128611061583165C0888
:10013C00831288000630F00064088316E300700810
:10014C000319AC28E30CE313FF3EA6280520831209
:10015C0003130616392006120630F00064088316C5
:10016C00E30070080319BE28E30CE313FF3EB82824
:0A017C001F2083120313E40A080099
:10018600063083120313F00064088316E10070083A
:100196000319D128E10CE113FF3ECB283B20F01FC9
:1001A600D528C328FF3088000C3083128604063019
:1001B600F00064088316E30070080319E628E30CD0
:1001C600E313FF3EE02805208312031306163920A9
:1001D60008088316DC00831206120630F000640855
:1001E6008316E30070080319FC28E30CE313FF3EB3
:1001F600F6281F2083120313E40A83165C08F00016
:020206000800EE
:10020800831203137008F100F0010830FC00710834
:10021800F40C03181329FC0B0C29F101003403100A
:100228001829F40C0318F107F10CF00CFC0B152934
:020238000800BC
:0E023A008316031347088A0046088200080056
:0C0248000E30FD00FD0B26290000080010
:10025400831603135C088312E40083165D0883127B
:10026400E3008316DE0102305E0203185129403098
:10027400DF005E08E0005820B830831603135D04E5
:10028400DF005E08E0005820C03083160313DF004F
:100294005E08E000582083160313DE0A3529403037
:1002A400F4005C08F00075207808F0004030700419
:1002B4008316DF000630F0005C08E00070080319C4
:1002C4006729E00CE013FF3E61295820B8308316FB
:1002D40003135D04DF000630F0005C08E0007008E2
:1002E40003197829E00CE013FF3E72295820080016
:1002F4002330831203138604C03083168605080056
:10030400C030831203139F0083165808F000F00DC9
:100314007010F00D7010700883129F0483169F17DD
:1003240083121F1424219F149F1C9A2900009629CC
:100334001F101E08F100F00183161E08F00400309F
:04034400F1040800B8
:10034800203083160313D802D901DA0180305A0607
:10035800F00080307002031DB329053059020318DC
:10036800D5295808F0000530F400042183165908EF
:10037800F0075A080318013EF1071A30F007063053
:100388000318013EF1077008C6007108C7001D2157
:100398008A110A12DC0086208316D90A0319DA0AA0
:0803A800AA29DC0186200800EF
:1003B000831603135808DC005908DD00DD0CDD133B
:1003C000DD0CDD13DD0CDD132A21C3207008DB00FA
:1003D0005808DC005908DD00DD0CDD13DD0CDD13F1
:1003E000DD0CDD132A21C3207008DB005808DC0077
:1003F0005908DD00DD0CDD13DD0CDD13DD0CDD1334
:100400002A21831603135A08013A031D1D2A0830B6
:10041000F4005908F00075207808F0007008F10029
:100420000130F00071080319192AF00D7010FF3E19
:10043000132A70088316DB04332A0830F4005908A5
:10044000F00075207808F0007008F1000130F0002D
:10045000710803192F2AF00D7010FF3E292AF009A8
:0E04600070088316DB055B08DC0086200800B0
:10046E0083160313D601D701D5015308F100F10C01
:10047E00F113F10CF113F10CF1137108550203187D
:10048E006E2A5008DC0055085107DD002A2183161C
:10049E000313D4015208540203186C2A56084E074F
:1004AE00F0004F080318013E5707F1007008C60010
:1004BE007108C7001D218A110A12DC0086208316DE
:1004CE00D60A0319D70AD40A512AD50A3C2A08009B
:1004DE0083120313071487100D30FC00FB30FD0050
:1004EE00FD0B772AFC0B772A000000008316D8013B
:0404FE00822108004F
:1005020083160313D2015108520203189E2A4E0881
:10051200D80052084F07D9000130DA00D8218316DB
:1005220050084E07D800D80352084F07D9000130AF
:10053200DA00D8218316D20A842AD2015008520244
:100542000318B92A52084E07D8004F08D9000130C3
:10055200DA00D821831652084E07D80051084F07F7
:10056200D900D9030130DA00D8218316D20A9F2A92
:0205720008007F
:10057400831603134E08840000080319C92A4E0881
:1005840084000008D800A4218316CE0ABA2A0800E1
:1005940083120313071087100D30FC00FB30FD009D
:1005A400FD0BD22AFC0BD22A000000000130831676
:1005B400D80082217108033C031DE22A7008843CA0
:1005C400013003180030CE000630FC003030FD004E
:1005D400FD0BEA2AFC0BEA2A00000130D800822134
:1005E4007108033C031DF82A7008843C0130031889
:1005F4000030F20072084E05F0007008CE000800CA
:100604007A213F30DF00E00158203F308316031386
:10061400DF000130E00058203F3083160313DF0071
:080624000230E000582008003C
:10062C0083120313071087140D30FC00FB30FD0000
:10063C00FD0B1E2BFC0B1E2B000000000130831643
:06064C00D8008221080025
:1006520083160313CF0108304F020318422BDC012B
:100662004F08DD002A2183160313CE0180304E028B
:100672000318402BDC0186208316CE0A372BCF0AC3
:040682002C2B080015
:1006860029230830CE001630CF003230D0000B3090
:10069600D10081220B30DC000330DD002A214730F7
:1006A60083160313CE00BA224430CE001630CF0094
:1006B6003230D0000B30D10081224730DC000330CD
:1006C600DD002A21423083160313CE00BA220B30F6
:1006D600DC000530DD002A21A03083160313CE008E
:1006E600BA220530DC000630DD002A214E308316A2
:0806F6000313CE00BA22080034
:1006FE0029230530CC000430CD00C801C901DC012E
:10070E00DD012A2183160313CA01CB014D084B02CA
:10071E00031D932B4C084A020318C42B4808153AA4
:10072E00031DAB2B0730490203189F2BC90AA62BBA
:10073E00CA227008031DA42B9F2BC9012923C801AF
:10074E00DC014908DD002A21831603134A08003E06
:10075E00F00010300318013E4B07F1007008C60080
:10076E007108C7001D218A110A12D800A421831610
:10077E00C80ACA0A0319CB0A8D2BCA227008031D98
:06078E00C92BC42B08007A
:100794002923CF30CE000930CF00D001D1018030E1
:1007A400D2004030D3003722CA227008031DDB2B4D
:0407B400D62B080038
:1007B8008030831603134906F00080307002031D51
:1007C800E72B003048020318F22B4808003CF000E1
:1007D8004908031C013EF101F10208004808F00035
:0607E8004908F1000800C1
:1007EE0083120313F801F9011030FC00710DF80D9E
:1007FE00F90D7408F8027508031C750FF902031839
:10080E000F2C7408F80775080318750FF9070310F5
:0A081E00F00DF10DFC0BFD2B08009E
:100828002923D8013F30D9000130DA00D8210A3015
:100838008316DC000630DD002A21203083160313DE
:10084800CE00BA22CA227008031D2B2C262C6F2238
:100858000A3070028312E5000030031C013E710269
:10086800E60016230A3070028312E9000030031CE8
:10087800013E7102EA000B30FB002630FC005D30BF
:10088800FD00FD0B452CFC0B452CFB0B452C0000FB
:10089800000029237F30D800D9010130DA00D8219F
:1008A8001E308316DC000130DD002A21313083162A
:1008B8000313CE00BA22CA227008031D642C5F2CD1
:1008C8006F22053070078312E70071080318013E94
:1008D800E8001623053070078312EB00710803182F
:1008E800013EEC000B30FB002630FC005D30FD00C3
:1008F800FD0B7C2CFC0B7C2CFB0B7C2C00000000E3
:020908000800E5
:10090A008316031307108710033003178800890121
:10091A0003300313850083120317871388130223F6
:02092A000800C3
:10092C0083120313FB01FA01F901F801EF01730DB6
:10093C00F80D7408F8027508031C750FF902760897
:10094C00031C760FFA027708031C770FFB020001D9
:10095C00031C0130EF02F30D0730FC00730DF80D92
:10096C00F90DFA0DFB0DEF0D7408731CCF2CF8026A
:10097C007508031C750FF9027608031C760FFA0232
:10098C007708031C770FFB020001031C0130EF02F8
:10099C00E02CF80775080318750FF907760803188B
:1009AC00760FFA0777080318770FFB070001031877
:1009BC000130EF07F30DFC0BB42C720DF80DF90D93
:1009CC00FA0DFB0DEF0D7408731CFE2CF802750864
:1009DC00031C750FF9027608031C760FFA027708D0
:1009EC00031C770FFB020001031C0130EF020F2DDB
:1009FC00F80775080318750FF90776080318760FB2
:100A0C00FA0777080318770FFB070001031801306A
:100A1C00EF07F20D0730FC00720DF80DF90DFA0D11
:100A2C00FB0DEF0D7408721C2D2DF8027508031CBC
:100A3C00750FF9027608031C760FFA027708031C6F
:100A4C00770FFB020001031C0130EF023E2DF8076B
:100A5C0075080318750FF90776080318760FFA074F
:100A6C0077080318770FFB07000103180130EF0715
:100A7C00F20DFC0B122D710DF80DF90DFA0DFB0D8D
:100A8C00EF0D7408721C5C2DF8027508031C750FB1
:100A9C00F9027608031C760FFA027708031C770F0D
:100AAC00FB020001031C0130EF026D2DF8077508E5
:100ABC000318750FF90776080318760FFA077708ED
:100ACC000318770FFB07000103180130EF07F10D36
:100ADC000730FC00710DF80DF90DFA0DFB0DEF0D43
:100AEC007408711C8B2DF8027508031C750FF90224
:100AFC007608031C760FFA027708031C770FFB02AB
:100B0C000001031C0130EF029C2DF8077508031837
:100B1C00750FF90776080318760FFA07770803188C
:100B2C00770FFB07000103180130EF07F10DFC0BE9
:100B3C00702D700DF80DF90DFA0DFB0DEF0D7408FD
:100B4C00711CBA2DF8027508031C750FF902760892
:100B5C00031C760FFA027708031C770FFB020001C7
:100B6C00031C0130EF02CB2DF80775080318750F25
:100B7C00F90776080318760FFA0777080318770F2A
:100B8C00FB07000103180130EF07F00D0730FC00E4
:100B9C00700DF80DF90DFA0DFB0DEF0D7408701CAE
:100BAC00E92DF8027508031C750FF9027608031C71
:100BBC00760FFA027708031C770FFB020001031C67
:100BCC000130EF02FA2DF80775080318750FF907B5
:100BDC0076080318760FFA0777080318770FFB07C8
:100BEC00000103180130EF07F00DFC0BCE2D70182F
:100BFC000D2E7408F80775080318750FF907760899
:100C0C000318760FFA0777080318770FFB0708000D
:100C1C001D218A110A128000840AC60A0319C70A08
:080C2C00F003031D0E2E080069
:1010000096268A1185248A158A1114248A15831636
:10101000BE01BF01BC01BD018A1143238A15013005
:10102000BB0083163B08031D1A288A1143238A1527
:101030000130BB008A11CA228A1570080319C82919
:101040008A116F228A158312650870028316C40004
:1010500083126608031C013E71028316C5008A11C3
:1010600016238A158312690870028316C200831240
:101070006A08031C013E71028316C3003E08440245
:10108000C8003F08031C013E4502C9008A11DC2349
:101090008A157008C0007108C1003C084202C800EF
:1010A0003D08031C013E4302C9008A11DC238A1556
:1010B00070088312ED007108EE0083164408BE002C
:1010C0004508BF004208BC004308BD004108003C81
:1010D000031D6C284008323C031C782883126E08DC
:1010E000003C031D75286D08323C031C78287928C4
:1010F00011280730F00083164408F6004508F70071
:10110000F801F901700803198C28F60DF70DF80D98
:10111000F90D7610FF3E8328831265086702F400FC
:101120006608031C013E6802F5007608F0007708A7
:10113000F1007808F2007908F3000030F51BFF3069
:10114000F600F7008A1196248A1570088316B700F6
:101150007108B8007208B9007308BA000630F000D0
:101160004208F2004308F30070080319BC28F20D8E
:10117000F30D7210FF3EB528831269086B02F4006C
:101180006A08031C013E6C02F5007208F000730847
:10119000F1008A11F7238A157008403C8316B300CA
:1011A0007108031C013EB401B4020030B500B60062
:1011B00080303A06F00080307002031DE9280030CC
:1011C0003902031DE92800303802031DE9280030E8
:1011D0003702031CFF288030F00080303A0670028E
:1011E000031DFC283908003C031DFC283808003C7E
:1011F000031DFC2837087F3C031CFF280029112809
:1012000080303606F00080307002031D1129003056
:101210003502031D112900303402031D112900304D
:101220003302031C27298030F0008030360670021C
:10123000031D24293508003C031D24293408003CE3
:10124000031D242933083F3C031C27292829112882
:101250008030F00080303A067002031D39293908C9
:10126000003C031D39293808003C031D3929370883
:10127000083C0318782980303A06F000803070026C
:10128000031D4C2900303902031D4C29003038025F
:10129000031D4C293A303702031878298030F000BA
:1012A000803036067002031D5F293508003C031D9F
:1012B0005F293408003C031D5F293308163C0318DE
:1012C000782980303606F00080307002031D7229C4
:1012D00000303502031D722900303402031D7229CB
:1012E0002130330203187829BB018A11CA238A15D9
:1012F0008030F00080303A067002031D89293908D9
:10130000003C031D89293808003C031D8929370842
:10131000443C0318C82980303A06F000803070023F
:10132000031D9C2900303902031D9C29003038021E
:10133000031D9C29763037020318C8298030F0003D
:10134000803036067002031DAF293508003C031DAE
:10135000AF293408003C031DAF293308163C03189D
:10136000C82980303606F00080307002031DC22983
:1013700000303502031DC22900303402031DC2298A
:10138000213033020318C829BB018A117F238A1533
:041390001128C9292E
:101D2C0020308400433083120313F00040308316BC
:101D3C00C6000E30C7008A110E268A15A03084000A
:101D4C0013300313F00083308316C6000E30C70027
:0E1D5C008A110E268A156330840002300313AC
:100C340000340034003400340034003400345F34B1
:100C440000340034003407340034073400341434DE
:100C54007F3414347F34143424342A347F342A34D3
:100C6400123423341334083464346234363449344B
:100C74005534223450340034053403340034003401
:100C840000341C34223441340034003441342234DE
:100C94001C34003408342A341C342A34083408340C
:100CA40008343E34083408340034503430340034CA
:100CB4000034083408340834083408340034303438
:100CC4003034003400342034103408340434023412
:100CD4003E345134493445343E34003442347F3454
:100CE400403400344234613451344934463421347C
:100CF400413445344B3431341834143412347F3491
:100D04001034273445344534453439343C344A347A
:100D140049344934303401347134093405340334EA
:100D24003634493449344934363406344934493440
:100D340029341E340034363436340034003400345C
:100D44005634363400340034003408341434223435
:100D540041341434143414341434143441342234E7
:100D64001434083400340234013451340934063460
:100D740032344934793441343E347E3411341134BC
:100D840011347E347F3449344934493436343E3462
:100D940041344134413422347F34413441342234A7
:100DA4001C347F3449344934493441347F34093460
:100DB4000934013401343E34413441345134323441
:100DC4007F340834083408347F34003441347F34A9
:100DD400413400342034403441343F3401347F34CE
:100DE40008341434223441347F34403440344034A1
:100DF40040347F340234043402347F347F34043486
:100E0400083410347F343E344134413441343E3468
:100E14007F3409340934093406343E3441345134BE
:100E240021345E347F340934193429344634463449
:100E34004934493449343134013401347F34013480
:100E440001343F344034403440343F341F34203480
:100E5400403420341F347F342034183420347F3419
:100E64006334143408341434633403340434783469
:100E74000434033461345134493445344334003444
:100E840000347F344134413402340434083410349F
:100E94002034413441347F34003400340434023487
:100EA4000134023404344034403440344034403457
:100EB40000340134023404340034203454345434BF
:100EC400543478347F3448344434443438343834F3
:100ED400443444344434203438344434443448347A
:100EE4007F343834543454345434183408347E340D
:100EF40009340134023408341434543454343C3442
:100F04007F340834043404347834003444347D3475
:100F1400403400342034403444343D34003400340C
:100F24007F34103428344434003441347F34403422
:100F340000347C3404341834043478347C34083475
:100F44000434043478343834443444344434383441
:100F54007C341434143414340834083414341434FD
:100F640018347C347C34083404340434083448346D
:100F7400543454345434203404343F3444344034EA
:100F840020343C344034403420347C341C34203409
:100F9400403420341C343C344034303440343C3409
:100FA400443428341034283444340C345034503409
:100FB40050343C344434643454344C344434003475
:100FC4000834363441340034003400347F3400347F
:100FD40000340034413436340834003408340834DE
:100FE4002A341C34083408341C342A3408340834B1
:020FF4000034C7
:020FF6000034C5
:10139E00003400340034003404340A343A343E3419
:1013AE007A34D234D034D034D034D034D034303403
:1013BE00BC343C34AC34AC34F634F734FF346E34D5
:1013CE00FE34BE347E347E345C3498346034003463
:1013DE00003400340034003400340034003400345F
:1013EE00003400340034003400340034003400344F
:1013FE00003400340034003400340034003400343F
:10140E00003400340034003400340034003400342E
:10141E0080348034803480340034813481348D348F
:10142E008F348834C0345034D034C834083408343F
:10143E008C340C343A343A344734823487340034A2
:10144E00A134D0347034F034A034A634A634993498
:10145E008B348E348D348F340F341B341734173451
:10146E001B340F340F348F34BE34BB34BF349F342F
:10147E00CC348C348F34F634F634F634E634BD3452
:10148E00FF34B134BD34EE34C3344C340034003444
:10149E000034003400340034003400340034183486
:1014AE001C34DE347E347B3439343F347D3478342E
:1014BE000F340F34033403344134C134E134C134B6
:1014CE00C034C034003400340034003400340034EE
:1014DE00003400340034003400340034003400345E
:1014EE00003400340034003400340034003400344E
:1014FE00003400340034003400340034003400343E
:10150E0000340034003400340034623463341D344B
:10151E009934C0344234C7348434843485348734A7
:10152E00003400348034503478345134713476348D
:10153E007E343F341F341634E334FD34F834E03453
:10154E00C034C134C234C234C234C33481340034E2
:10155E00013483348334BF34BF34E634EA34EA349E
:10156E00BC34F834F134C3344234473481348534D6
:10157E008534AE34FF34FF34F734FF34FF34FE3499
:10158E00FE34FF34FB34FD34D234D0340034003416
:10159E00003400340034003420343C343434F73416
:1015AE00FE34F134F534EF34FF34BC34B634FE344B
:1015BE00FC34E634F334E934F73497349934FF3499
:1015CE00F734F334DF34DD34FC3478347834F834E3
:1015DE0068347834F8347034703430341034103455
:1015EE0010341034103410341034103410341034CD
:1015FE0010341034103410341034103410341034BD
:10160E0010341034103410341034103410341034AC
:10161E00103410341034103410341034103411349B
:10162E001134113411341034103410341034103489
:10163E0010341034103410341F341F341F341F3440
:10164E001134113411341134113411341134123463
:10165E001234193419342C340F341F343F343F34C0
:10166E006F347F343A343F3477347734FF34BF34B9
:10167E00353416341F340B341F341F342F343F349B
:10168E003F34FF34CF34FF34FF342F34253400344D
:10169E000034003400340034003400342034FB3481
:1016AE00FF34FF34FF34FF34FF3483348134C134CC
:1016BE00E334E33433343734E534C73407340F348A
:1016CE000B341B341F341C343834F0346034603423
:1016DE006134613461346134603460346034603458
:1016EE00603460346034603460346034603460344C
:1016FE00603460346034603460346034E0346034BC
:10170E00603460346034603460346034603460342B
:10171E00603460346034603460346034603460341B
:10172E00603460346034603460346034603460340B
:10173E0060346034603460346034603460346034FB
:10174E0060346034603460346034603460346034EB
:10175E0060346034603460346034603460346034DB
:10176E0060346034603460346034603460346134CA
:10177E006334623466346C34F834F034603460347C
:10178E000034FF34FF34FF34FF34003400340034AF
:10179E000034003400340034023417341D34213444
:1017AE002134FF34FF34FF34FF34A734A7343A34E6
:1017BE0018347834F834E83479347B347A349E34FF
:1017CE0090340034FC349E349F347F346034803443
:1017DE000E340A340A340A340A340A340A340E3403
:1017EE000034003400340E340A340A340A340A3415
:1017FE000A340E340E34003400348034FF34F8349E
:10180E00E834C034C034FE34FE34FE342234223484
:10181E002234223422342234FE342234223422342E
:10182E002234223422342234FE34FE34FE34323456
:10183E00003400340034FE348234BA343A343A344C
:10184E0062346234623462340234FE340034003462
:10185E000034FE34FE34FE34FE342234223422347C
:10186E002234FE34FE342234223422342234223402
:10187E00FE34FE34FE34E0347F34FF34C234DE34C2
:10188E007E34FF34FF34FF34FF3400340034003430
:10189E00003400340034003400348034803480341A
:1018AE006034BF34FF347F34FF34FF34E134C3344B
:1018BE00CF348C348934083408340834083419345D
:1018CE003F343B340B344F344F344934E934FE3417
:1018DE00A834A034A03420342034203420342034D2
:1018EE00203420342034203420342034203420344A
:1018FE0020342034203420343C343F3427342F34E9
:10190E003F343F347D3449340934E1344034483473
:10191E007834783478347934493441344D34513410
:10192E001934793449347934313471344934493481
:10193E00C834C83478347F34503451344034403451
:10194E00403450345034F034E0347F34183498340A
:10195E009034C934E934F934F934383488340834DD
:10196E009034F13479347834A034F834F03470345F
:10197E00093479343F347F34783468344D344C3400
:10198E007C34FF34FF34FF34FF34F8340034003439
:10199E000034003400340034003400340034003499
:1019AE000034003400340034003400340034003489
:1019BE000034003400340034003400340034003479
:1019CE000034003400340034003400340034003469
:1019DE0001340134033403340334063406340C3436
:1019EE000C341834183410343034203460346034ED
:1019FE00C034C034803480340034003400340034B9
:101A0E000034003400340034003401340034023425
:101A1E000234063406340034003404340034003406
:101A2E0002340234223462346234D034D1349134EC
:101A3E00913410341034103408340834083404341B
:101A4E0006340234013401340034003400340034DE
:101A5E0000340034003400340034003400340034D8
:101A6E0000340034003400340034003400340034C8
:101A7E000034003480348034C034C034E034E03478
:101A8E00F834E734EF34FF34773443340034003421
:101A9E000034003400340034003400340034803418
:101AAE0080340034C034C034C034C034C034C03488
:101ABE00C034C034C034C034C034C034C034C03478
:101ACE00C034C034C034C034C034403440344034E8
:101ADE004034403440344034403440344034403458
:101AEE004034403440344034403440344034603428
:101AFE0040344034413441346334633462346634A8
:101B0E0066346C346C3478347834783470347034A1
:101B1E0020340034003400340034003400340034F7
:101B2E000034003400340034003400340034013406
:101B3E000134013403340234063406340C340C34CC
:101B4E001834183430343034303430343034303497
:101B5E003034303430343034303430343034303457
:101B6E003034303430343034303430343034303447
:101B7E003034303430343034303430343034303437
:101B8E001034103400340034003400340034003487
:101B9E000034003400340034003400340034003497
:101BAE000034003400340034003400340034003487
:101BBE000034003400340034003400340034003477
:101BCE000034003400340034003400340034003467
:101BDE000034003400340034003400340034003457
:101BEE000034003400340034003400340034003447
:101BFE000034003400340034003400340034003437
:101C0E000034003400340034003400340034003426
:101C1E000034003400340034003400340034003416
:101C2E000034003400340034003400340034003406
:101C3E0000340034003400340034003400340034F6
:101C4E0000340034003400340034003400340034E6
:101C5E0000340034003400340034003400340034D6
:101C6E0000340034003400340034003400340034C6
:021C7E00003430
:101C80004134743469346E3467346534743469347F
:101C90002034703475346E346334743475346C3479
:021CA00000340E
:101CA2004134743469346E3467346534743469345D
:101CB2002034703475346E346334743475346C3457
:021CC2000034EC
:0A1CC400543465347834743400346D
:0E1CCE004234693474346D346134703400343F
:101CDC00563475346C34633461346E34203453347C
:101CEC0069346C3476346934753420342D342034B2
:0A1CFC00323430343034393400340F
:101D0600503472346F346934653463347434203437
:101D16006434653420346C346934633465346E3429
:061D260074346134003446
:102000002A342A342A342A342A34203443344F34AC
:102010004E3443344C3455345A34493449342034E2
:102020002A342A342A342A342A34203420342034DE
:102030002034203420342034203420342034203400
:1020400020342034203420342034203420342034F0
:10205000203420342A3420345034723465347A34B5
:1020600065346E34743461347234653461342034D0
:1020700075346E34753469342034203420346D3432
:102080006534643469347534203464346534203400
:10209000703472346F346734723461346D34613447
:1020A000723465342034203469346E3474346534C9
:1020B0006734723461347434203465347834743461
:1020C000723465346D342034643465342034203403
:1020D0002034703475347434653472346E34693439
:1020E00063342C34203469346E3420346C346934D5
:1020F0006D34623461346A342034203443342C34F7
:102100002034703465346E34743472347534203451
:10211000203420342034203420342034203420341F
:102120002034203420346D346934633472346F3495
:1021300063346F346E34743472346F346C34653499
:10214000723465342E34203420342034203420344A
:102150002D342D342D342D342D342D342D342D3477
:102160002D342D342D342D342D342D342D342D3467
:102170002D342D342D342D342D342034203420347E
:1021800020342034203420342034203420342034AF
:10219000203420342034203420342034203420349F
:1021A000203420342A3420345034723465347A3464
:1021B00065346E347434613472346534613420347F
:1021C0006B346934743475346C3475346934643404
:1021D00065342034643465347A3476346F346C3446
:1021E0007434613472346534203466346F346C3442
:1021F0006F347334693474346134203469346E3428
:1022000074346534723466346534743465346C34D3
:102210006F3472342034733461346C346534203458
:10222000203473347034653463346934663469340B
:102230006334653420347334693420346134203499
:102240002034203420342034203420346634753453
:102250006E3463347434693469346C346F3472347A
:1022600020346F34663465347234693474346534C0
:102270002E34203420342D342D342D342D342D346F
:102280002D342D342D342D342D342D342D342D3446
:102290002D342D342D342D342D342D342D342D3436
:1022A000203420342034203420342034203420348E
:1022B000203420342034203420342034203420347E
:1022C000203420342034203420342A342034523432
:1022D000653461346C3469347A3461347234653411
:1022E0006134203475346E346534693420342034DC
:1022F000203420346234693462346C3469346F348D
:10230000743465346334693420346734723461342E
:10231000663469346334653420346334653470342E
:10232000653472346D346934743465342034663401
:102330006F346C346F34733469347234653461349F
:10234000203420342034203475346E3475346934AC
:10235000203465346334723461346E34203467342D
:102360007234613466346934633420342034203468
:1023700020344B3453343034313430343834203416
:1023800069346D3470347234653475346E3461344C
:10239000203463347534203475346E346D346934CC
:1023A000633472346F3463346F346E347434723423
:1023B0006F346C34653472342034503449344334CF
:1023C0002E34203420344334753420346D34693451
:1023D0006334693420346D346F3464346934663462
:1023E00069346334613472346934203420342034E5
:1023F000613463346534613473347434613420344B
:102400006234693462346C3469346F3474346534E2
:102410006334613420342034203470346F346134B8
:1024200074346534203466346934203466346F344F
:102430006C346F34733469347434613420347334DD
:102440006934203463347534203461346C3474342A
:102450006534203420342034203420342034203497
:1024600020342034203420342034203420346D347F
:102470006934633472346F3463346F346E3474345B
:1024800072346F346C346534723465342034733490
:102490006934203469346E3461346C347434653496
:1024A00020346D34653464346934693420346434E0
:1024B0006534203420342034203420342034203437
:1024C0002034703472346F346734723461346D3454
:1024D000613472346534203443342E342034203453
:1024E0002034203420342034203420342D342D3432
:1024F0002D342D342D342D342D342D342D342D34D4
:102500002D342D342D342D342D342D342D342D34C3
:102510002D342D342D3420342034203420342034F4
:10252000203420342034203420342034203420340B
:1025300020342034203420342034203420342034FB
:102540002A3420345234653461346C3469347A343A
:102550006134723465346134203475346E347534CA
:1025600069342034203420342034703472346F3491
:102570006734723461346D3420346434653420340B
:1025800063346F346E347634653472347334693442
:10259000653420346134203469346D3461346734F7
:1025A00069346E3469346C346F347234203464347A
:1025B00069346E342034203420342034203466349E
:1025C0006F3472346D346134743420342E34623498
:1025D0006D34703420346434653420346F34723494
:1025E0006934633465342034643469346D3465345B
:1025F0006E347334693475346E3465342034693420
:102600006E342034203420342034203420342034DC
:10261000203466346F3472346D34613474347534FC
:102620006C34203431343234383478343634343401
:102630002034203420342034203420347034693461
:10264000783465346C34693420346D346F346E34CE
:102650006F34633472346F346D342C34203420344E
:102660002034203420346334653472347534743447
:10267000203464346534203461346634693473340E
:1026800061346A3475346C3420342034203420347E
:1026900067347234613466346934633420344B34C3
:1026A000533430343134303438342C342034203402
:1026B00020342034203420342034703472346F3489
:1026C0006734723461346D3420346334613472346D
:1026D00065342034723475346C34653461347A3442
:1026E0006134203470346534203475346E342034D1
:1026F000633461346C34633475346C3461347434F1
:102700006F34723420342034203420342034633445
:102710006F346D34703461347434693462346934C4
:102720006C342034503443342C342034203420345E
:1027300020342034203420347034653472346D34C5
:102740006934743461346E346434203466346F34E4
:102750006C346F34733469347234653461342034CA
:1027600020346C346F347234203469346E34203445
:10277000633461346434723475346C3420342034FE
:102780002034203420342034203420346134703418
:102790006C346934633461347434693469346C344E
:1027A0006F34723420346334753420342034203450
:1027B0002034203420346D346934633472346F34FF
:1027C00063346F346E34743472346F346C34653403
:1027D00072342E34203420342034203420342034F9
:1027E0002D342D342D342D342D342D342D342D34E1
:1027F0002D342D342D342D342D342D342D342D34D1
:0C2800002D342D342D342D342D340034B3
:04400E00F22F000786
:00000001FF
